:040000008A11112828
:10000800FE00030E83120313B8000408B9000A089F
:10001800BA007F08BB008A1166298A111328FC01DF
:1000280083132030840037308A1111238A118A11F2
:1000380019238A11BD008A111A238A11BE008A1158
:100048001B238A11BF008A111C23FD0083018A111A
:10005800EE280A30F0000030F1007D08F900FA01BE
:100068007908F2007A08F3008A1138228A11700898
:10007800FB007B0883120313A3000A30F000003052
:10008800F1007D08F900FA017908F2007A08F30016
:100098008A1193228A117008FB007B0883120313CC
:1000A800A2000A30F0000030F1003108F900FA012E
:1000B8007908F2007A08F3008A1138228A11700848
:1000C800FB007B0883120313A1000A30F000003004
:1000D800F1003108F900FA017908F2007A08F30012
:1000E8008A1193228A117008FB007B08831203137C
:1000F800A0002F08031990280130AA070318AB0A9B
:100108000030AB0764302A062B040319BF01C8303E
:100118002A062B04031D9428AA01AB01BF01BF0ABC
:10012800CC30F90079088505B0080319D628E428E9
:100138003F080319A7282008013E84008A110123DB
:100148008A117F39AD282008013E84008A110123D5
:100158008A1187000514E4283F080319BB282108E1
:10016800013E84008A1101238A117F39C1282108A0
:10017800013E84008A1101238A1187008514E4282E
:100188002208013E84008A1101238A11870005167E
:10019800E4282308013E84008A1101238A1187007C
:1001A8008516E4283608003A03199C28013A0319F1
:1001B800B028033A0319C428013A0319CD28E428C2
:1001C8000130F9007908B6073608043A031D08001B
:1001D800B60108007030831603138F0003308100C6
:1001E80083308312031381008B178B160B11831234
:1001F80003179E0199019A010C3083120313BC0066
:100208003C08831603138504CC3083120313BC0007
:100218003C088316031385058701CC30831203132A
:10022800BC003C088505FF3087008316031386173A
:100238008312031795170313B308031D36297C0887
:10024800013A031D2829FC017C08023A031D5D2997
:10025800B301B30A0130BC003C08AF00051D3229C8
:10026800FC015D297C08013A03193E297C08023A01
:10027800031D5429FC010130BC003C08B1073108BA
:100288003C3A031D5429B1010130BC003C08FD076C
:100298007D080D3A031D54290130BC003C08FD00BF
:1002A80001302702F53003192602031C5D29B3012A
:1002B800AF013008013A0319861B1F29B001A801B4
:1002C800A9011F290B1DC5290B1183308100AE0818
:1002D800031D72298617AE01AE0A77297F30B70051
:1002E80037088605AE010130B7003708AC0705307E
:1002F8002C02031C8329AC018A112D208A1101309C
:1003080083120313B7003708AD070A302D02031C08
:100318009129AD018A11D0218A110130831203136A
:10032800A4070318A50A0030A5072508803AFF008E
:1003380083307F02031DA229E8302402031CAB2965
:1003480083120313A401A5018A11E0228A110B303C
:10035800831203132902B830031928020318BB2992
:100368000130A8070318A90A0030A907C529B3084E
:100378000319861FC5290130B7003708B000A80146
:10038800A9013B08FF003A088A0039088400380EA2
:100398008300FE0E7E0E09007C08031D08008312F0
:1003A800031305080439F0007008F10071080319F7
:1003B800EB29023027020830031926020318292ADC
:1003C8000130A6070318A70A0030A707292AA601A3
:1003D800A701292AF108031D0800B501B50A08007C
:1003E800F108031D032A0230F0007008B50001303F
:1003F800F0007008FC00B001A801A9010800B501CF
:100408000800F108031D192A3D0834020318112AAF
:100418000130F0007008B40708000230F0007008DE
:10042800FC00B001A801A90108000330F000700821
:10043800B500080071080319242AB501B4010800A1
:100448000230F0007008B50008003508003A0319BA
:10045800EE29013A0319F429033A0319052A013A46
:1004680003191E2A372A0800F601F11F422AF0094B
:10047800F109F00A0319F10AF601F60AF31F4D2AE9
:10048800F209F309F20A0319F30A0130F4007408B7
:10049800F606F701F801710870040319842AF501BA
:1004A800F50AF11B632A01300310F00DF10DFF3E30
:1004B800031D582A0130F4007408F507552A013045
:1004C8000310F70DF80DFF3E031D642A710873022F
:1004D800031D702A70087202031C792A7008F20240
:1004E8007108031CF303F302771401300310F10CB5
:1004F800F00CFF3E031D7A2A0130F502031D632A22
:10050800760803198C2AF709F809F70A0319F80A73
:100518007808F101F1077708F001F0070800F60103
:10052800F31F9D2AF209F309F20A0319F30AF601E7
:10053800F60AF11FA42AF009F109F00A0319F10AD1
:10054800710870040319D12AF501F50AF11BB82ABC
:1005580001300310F00DF10DFF3E031DAD2A0130EF
:10056800F4007408F507AA2A71087302031DBE2A4D
:1005780070087202031CC62A7008F2027108031C74
:10058800F303F30201300310F10CF00CFF3E031DDE
:10059800C72A0130F502031DB82A76080319D92A9B
:1005A800F209F309F20A0319F30A7308F101F107D2
:1005B8007208F001F00708000130F000700883129B
:1005C8000313B20732083C3A031D0800B201013098
:1005D800F0007008B10731083C3A031D0800B1016A
:1005E8000130F0007008FD077D080D3A031D080072
:1005F8000130F0007008FD00080003308A0004088C
:10060800840A82070034C034F934A434B0349934ED
:1006180092348234F8348034903464008001840A3F
:100628000406031900340406122BC83401340134BB
:0206380001348B
:02400E00E4F0DC
:00000001FF
